{
  "address": "0x9fE46736679d2D9a65F0992F2272dE9f3c7fa6e0",
  "abi": [
    {
      "constant": false,
      "inputs": [
        {
          "name": "_newNFTOnSale",
          "type": "address"
        }
      ],
      "name": "setWorkingNFT",
      "outputs": [],
      "payable": false,
      "stateMutability": "nonpayable",
      "type": "function"
    },
    {
      "constant": true,
      "inputs": [
        {
          "name": "_at",
          "type": "uint256"
        }
      ],
      "name": "getCurrentFeesToPayOfAuction",
      "outputs": [
        {
          "name": "",
          "type": "uint256"
        }
      ],
      "payable": false,
      "stateMutability": "view",
      "type": "function"
    },
    {
      "constant": true,
      "inputs": [
        {
          "name": "_at",
          "type": "uint256"
        }
      ],
      "name": "getLastBuyerOfAuction",
      "outputs": [
        {
          "name": "",
          "type": "address"
        }
      ],
      "payable": false,
      "stateMutability": "view",
      "type": "function"
    },
    {
      "constant": false,
      "inputs": [
        {
          "name": "_at",
          "type": "uint256"
        }
      ],
      "name": "take",
      "outputs": [],
      "payable": true,
      "stateMutability": "payable",
      "type": "function"
    },
    {
      "constant": true,
      "inputs": [],
      "name": "maxExpirationDuration",
      "outputs": [
        {
          "name": "",
          "type": "uint256"
        }
      ],
      "payable": false,
      "stateMutability": "view",
      "type": "function"
    },
    {
      "constant": false,
      "inputs": [
        {
          "name": "_at",
          "type": "uint256"
        },
        {
          "name": "_newPrice",
          "type": "uint256"
        }
      ],
      "name": "bid",
      "outputs": [],
      "payable": false,
      "stateMutability": "nonpayable",
      "type": "function"
    },
    {
      "constant": false,
      "inputs": [
        {
          "name": "_fee",
          "type": "uint256"
        }
      ],
      "name": "setFee",
      "outputs": [],
      "payable": false,
      "stateMutability": "nonpayable",
      "type": "function"
    },
    {
      "constant": false,
      "inputs": [],
      "name": "renounceOwnership",
      "outputs": [],
      "payable": false,
      "stateMutability": "nonpayable",
      "type": "function"
    },
    {
      "constant": true,
      "inputs": [
        {
          "name": "_at",
          "type": "uint256"
        }
      ],
      "name": "getStopTimeOfAuction",
      "outputs": [
        {
          "name": "",
          "type": "uint256"
        }
      ],
      "payable": false,
      "stateMutability": "view",
      "type": "function"
    },
    {
      "constant": true,
      "inputs": [
        {
          "name": "_at",
          "type": "uint256"
        }
      ],
      "name": "getCurrentPriceOfAuction",
      "outputs": [
        {
          "name": "",
          "type": "uint256"
        }
      ],
      "payable": false,
      "stateMutability": "view",
      "type": "function"
    },
    {
      "constant": true,
      "inputs": [
        {
          "name": "_at",
          "type": "uint256"
        }
      ],
      "name": "getTokenIdOfAuction",
      "outputs": [
        {
          "name": "",
          "type": "uint256"
        }
      ],
      "payable": false,
      "stateMutability": "view",
      "type": "function"
    },
    {
      "constant": true,
      "inputs": [],
      "name": "nftOnSale",
      "outputs": [
        {
          "name": "",
          "type": "address"
        }
      ],
      "payable": false,
      "stateMutability": "view",
      "type": "function"
    },
    {
      "constant": true,
      "inputs": [],
      "name": "owner",
      "outputs": [
        {
          "name": "",
          "type": "address"
        }
      ],
      "payable": false,
      "stateMutability": "view",
      "type": "function"
    },
    {
      "constant": true,
      "inputs": [],
      "name": "minExpirationDuration",
      "outputs": [
        {
          "name": "",
          "type": "uint256"
        }
      ],
      "payable": false,
      "stateMutability": "view",
      "type": "function"
    },
    {
      "constant": false,
      "inputs": [
        {
          "name": "_at",
          "type": "uint256"
        }
      ],
      "name": "cancelAuction",
      "outputs": [],
      "payable": false,
      "stateMutability": "nonpayable",
      "type": "function"
    },
    {
      "constant": true,
      "inputs": [
        {
          "name": "_at",
          "type": "uint256"
        }
      ],
      "name": "getStatusOfAuction",
      "outputs": [
        {
          "name": "",
          "type": "uint256"
        }
      ],
      "payable": false,
      "stateMutability": "view",
      "type": "function"
    },
    {
      "constant": true,
      "inputs": [],
      "name": "feeInBps",
      "outputs": [
        {
          "name": "",
          "type": "uint256"
        }
      ],
      "payable": false,
      "stateMutability": "view",
      "type": "function"
    },
    {
      "constant": true,
      "inputs": [
        {
          "name": "_at",
          "type": "uint256"
        }
      ],
      "name": "getSellerOfAuction",
      "outputs": [
        {
          "name": "",
          "type": "address"
        }
      ],
      "payable": false,
      "stateMutability": "view",
      "type": "function"
    },
    {
      "constant": true,
      "inputs": [],
      "name": "feeReceiver",
      "outputs": [
        {
          "name": "",
          "type": "address"
        }
      ],
      "payable": false,
      "stateMutability": "view",
      "type": "function"
    },
    {
      "constant": true,
      "inputs": [],
      "name": "MAX_FEE",
      "outputs": [
        {
          "name": "",
          "type": "uint256"
        }
      ],
      "payable": false,
      "stateMutability": "view",
      "type": "function"
    },
    {
      "constant": false,
      "inputs": [
        {
          "name": "_nftToSell",
          "type": "uint256"
        },
        {
          "name": "_expirationDuration",
          "type": "uint256"
        },
        {
          "name": "_startPrice",
          "type": "uint256"
        }
      ],
      "name": "createAuction",
      "outputs": [],
      "payable": false,
      "stateMutability": "nonpayable",
      "type": "function"
    },
    {
      "constant": false,
      "inputs": [
        {
          "name": "_maxExpirationDuration",
          "type": "uint256"
        }
      ],
      "name": "setMaxExpirationDuration",
      "outputs": [],
      "payable": false,
      "stateMutability": "nonpayable",
      "type": "function"
    },
    {
      "constant": false,
      "inputs": [
        {
          "name": "_minExpirationDuration",
          "type": "uint256"
        }
      ],
      "name": "setMinExpirationDuration",
      "outputs": [],
      "payable": false,
      "stateMutability": "nonpayable",
      "type": "function"
    },
    {
      "constant": false,
      "inputs": [
        {
          "name": "_feeReceiver",
          "type": "address"
        }
      ],
      "name": "setFeeReceiver",
      "outputs": [],
      "payable": false,
      "stateMutability": "nonpayable",
      "type": "function"
    },
    {
      "constant": true,
      "inputs": [],
      "name": "getAuctionsAmount",
      "outputs": [
        {
          "name": "",
          "type": "uint256"
        }
      ],
      "payable": false,
      "stateMutability": "view",
      "type": "function"
    },
    {
      "constant": false,
      "inputs": [
        {
          "name": "newOwner",
          "type": "address"
        }
      ],
      "name": "transferOwnership",
      "outputs": [],
      "payable": false,
      "stateMutability": "nonpayable",
      "type": "function"
    },
    {
      "inputs": [
        {
          "name": "_nftOnSale",
          "type": "address"
        },
        {
          "name": "_feeReceiver",
          "type": "address"
        },
        {
          "name": "_minExpirationDuration",
          "type": "uint256"
        },
        {
          "name": "_maxExpirationDuration",
          "type": "uint256"
        },
        {
          "name": "_feeInBps",
          "type": "uint256"
        }
      ],
      "payable": false,
      "stateMutability": "nonpayable",
      "type": "constructor"
    },
    {
      "payable": true,
      "stateMutability": "payable",
      "type": "fallback"
    },
    {
      "anonymous": false,
      "inputs": [
        {
          "indexed": true,
          "name": "_at",
          "type": "uint256"
        }
      ],
      "name": "AuctionCreated",
      "type": "event"
    },
    {
      "anonymous": false,
      "inputs": [
        {
          "indexed": true,
          "name": "_at",
          "type": "uint256"
        }
      ],
      "name": "AuctionRejected",
      "type": "event"
    },
    {
      "anonymous": false,
      "inputs": [
        {
          "indexed": true,
          "name": "_at",
          "type": "uint256"
        }
      ],
      "name": "AuctionFilled",
      "type": "event"
    },
    {
      "anonymous": false,
      "inputs": [
        {
          "indexed": true,
          "name": "_at",
          "type": "uint256"
        }
      ],
      "name": "AuctionBid",
      "type": "event"
    },
    {
      "anonymous": false,
      "inputs": [
        {
          "indexed": true,
          "name": "previousOwner",
          "type": "address"
        },
        {
          "indexed": true,
          "name": "newOwner",
          "type": "address"
        }
      ],
      "name": "OwnershipTransferred",
      "type": "event"
    }
  ],
  "transactionHash": "0xd0bbf3fb25eb2ccd9947b1851e85e1f16421b39adcdb708225f59feb67c79a3f",
  "args": [
    "0x5FbDB2315678afecb367f032d93F642f64180aa3",
    "0xf39Fd6e51aad88F6F4ce6aB8827279cffFb92266",
    "86400",
    "864000",
    9500
  ],
  "solcInputHash": "94a9936bcbef1aa0c6c8b2970cfe424e",
  "bytecode": "0x608060405234801561001057600080fd5b5060405160a08061285c8339810180604052810190808051906020019092919080519060200190929190805190602001909291908051906020019092919080519060200190929190505050848484848461007833610125640100000000026401000000009004565b6001808190555084600760006101000a81548173ffffffffffffffffffffffffffffffffffffffff021916908373ffffffffffffffffffffffffffffffffffffffff16021790555083600360006101000a81548173ffffffffffffffffffffffffffffffffffffffff021916908373ffffffffffffffffffffffffffffffffffffffff160217905550826004819055508160058190555080600281905550505050505050505050506101e9565b60008060009054906101000a900473ffffffffffffffffffffffffffffffffffffffff169050816000806101000a81548173ffffffffffffffffffffffffffffffffffffffff021916908373ffffffffffffffffffffffffffffffffffffffff1602179055508173ffffffffffffffffffffffffffffffffffffffff168173ffffffffffffffffffffffffffffffffffffffff167f8be0079c531659141344cd1fd0a4f28419497f9722a3daafe3b4186f6b6457e060405160405180910390a35050565b612664806101f86000396000f300608060405260043610610154576000357c0100000000000000000000000000000000000000000000000000000000900463ffffffff1680630fea6f7f146101565780632f35be0e1461019957806343794f03146101da5780634fd9efc4146102475780635059702114610267578063598647f81461029257806369fe0e2d146102c9578063715018a6146102f6578063725206e01461030d578063748be8bc1461034e57806378e3f07f1461038f5780637f915bdc146103d05780638da5cb5b1461042757806395fe715a1461047e57806396b5a755146104a95780639c744058146104d6578063a0a7299b14610517578063a8c048b614610542578063b3f00674146105af578063bc063e1a14610606578063cda4beef14610631578063e3406a8714610672578063ec1d3f8e1461069f578063efdcd974146106cc578063f18f3db21461070f578063f2fde38b1461073a575b005b34801561016257600080fd5b50610197600480360381019080803573ffffffffffffffffffffffffffffffffffffffff16906020019092919050505061077d565b005b3480156101a557600080fd5b506101c46004803603810190808035906020019092919050505061086b565b6040518082815260200191505060405180910390f35b3480156101e657600080fd5b5061020560048036038101908080359060200190929190505050610906565b604051808273ffffffffffffffffffffffffffffffffffffffff1673ffffffffffffffffffffffffffffffffffffffff16815260200191505060405180910390f35b610265600480360381019080803590602001909291905050506109c1565b005b34801561027357600080fd5b5061027c610f3e565b6040518082815260200191505060405180910390f35b34801561029e57600080fd5b506102c76004803603810190808035906020019092919080359060200190929190505050610f44565b005b3480156102d557600080fd5b506102f4600480360381019080803590602001909291905050506112fe565b005b34801561030257600080fd5b5061030b6113b2565b005b34801561031957600080fd5b5061033860048036038101908080359060200190929190505050611468565b6040518082815260200191505060405180910390f35b34801561035a57600080fd5b5061037960048036038101908080359060200190929190505050611503565b6040518082815260200191505060405180910390f35b34801561039b57600080fd5b506103ba6004803603810190808035906020019092919050505061159e565b6040518082815260200191505060405180910390f35b3480156103dc57600080fd5b506103e5611639565b604051808273ffffffffffffffffffffffffffffffffffffffff1673ffffffffffffffffffffffffffffffffffffffff16815260200191505060405180910390f35b34801561043357600080fd5b5061043c61165f565b604051808273ffffffffffffffffffffffffffffffffffffffff1673ffffffffffffffffffffffffffffffffffffffff16815260200191505060405180910390f35b34801561048a57600080fd5b50610493611688565b6040518082815260200191505060405180910390f35b3480156104b557600080fd5b506104d46004803603810190808035906020019092919050505061168e565b005b3480156104e257600080fd5b5061050160048036038101908080359060200190929190505050611aa7565b6040518082815260200191505060405180910390f35b34801561052357600080fd5b5061052c611b5a565b6040518082815260200191505060405180910390f35b34801561054e57600080fd5b5061056d60048036038101908080359060200190929190505050611b60565b604051808273ffffffffffffffffffffffffffffffffffffffff1673ffffffffffffffffffffffffffffffffffffffff16815260200191505060405180910390f35b3480156105bb57600080fd5b506105c4611c1b565b604051808273ffffffffffffffffffffffffffffffffffffffff1673ffffffffffffffffffffffffffffffffffffffff16815260200191505060405180910390f35b34801561061257600080fd5b5061061b611c41565b6040518082815260200191505060405180910390f35b34801561063d57600080fd5b50610670600480360381019080803590602001909291908035906020019092919080359060200190929190505050611c47565b005b34801561067e57600080fd5b5061069d60048036038101908080359060200190929190505050611fa9565b005b3480156106ab57600080fd5b506106ca6004803603810190808035906020019092919050505061205d565b005b3480156106d857600080fd5b5061070d600480360381019080803573ffffffffffffffffffffffffffffffffffffffff169060200190929190505050612111565b005b34801561071b57600080fd5b506107246121ff565b6040518082815260200191505060405180910390f35b34801561074657600080fd5b5061077b600480360381019080803573ffffffffffffffffffffffffffffffffffffffff169060200190929190505050612209565b005b3373ffffffffffffffffffffffffffffffffffffffff1661079c61165f565b73ffffffffffffffffffffffffffffffffffffffff16141515610827576040517f08c379a00000000000000000000000000000000000000000000000000000000081526004018080602001828103825260208152602001807f4f776e61626c653a2063616c6c6572206973206e6f7420746865206f776e657281525060200191505060405180910390fd5b80600760006101000a81548173ffffffffffffffffffffffffffffffffffffffff021916908373ffffffffffffffffffffffffffffffffffffffff16021790555050565b600081600654811015156108e7576040517f08c379a000000000000000000000000000000000000000000000000000000000815260040180806020018281038252600c8152602001807f696e76616c6964496e646578000000000000000000000000000000000000000081525060200191505060405180910390fd5b6008600084815260200190815260200160002060050154915050919050565b60008160065481101515610982576040517f08c379a000000000000000000000000000000000000000000000000000000000815260040180806020018281038252600c8152602001807f696e76616c6964496e646578000000000000000000000000000000000000000081525060200191505060405180910390fd5b6008600084815260200190815260200160002060020160009054906101000a900473ffffffffffffffffffffffffffffffffffffffff16915050919050565b600260015414151515610a3c576040517f08c379a000000000000000000000000000000000000000000000000000000000815260040180806020018281038252601f8152602001807f5265656e7472616e637947756172643a207265656e7472616e742063616c6c0081525060200191505060405180910390fd5b6002600181905550610a836008600083815260200190815260200160002060050154600860008481526020019081526020016000206004015461238a90919063ffffffff16565b3410151515610afa576040517f08c379a000000000000000000000000000000000000000000000000000000000815260040180806020018281038252600e8152602001807f6e6f74456e6f75676846756e647300000000000000000000000000000000000081525060200191505060405180910390fd5b600860008281526020019081526020016000206003015442111515610b87576040517f08c379a00000000000000000000000000000000000000000000000000000000081526004018080602001828103825260108152602001807f61756374696f6e497353746f707065640000000000000000000000000000000081525060200191505060405180910390fd5b6008600082815260200190815260200160002060020160009054906101000a900473ffffffffffffffffffffffffffffffffffffffff1673ffffffffffffffffffffffffffffffffffffffff163373ffffffffffffffffffffffffffffffffffffffff16141515610c60576040517f08c379a00000000000000000000000000000000000000000000000000000000081526004018080602001828103825260178152602001807f73656e6465724d7573744265427579657257686f576f6e00000000000000000081525060200191505060405180910390fd5b6008600082815260200190815260200160002060010160009054906101000a900473ffffffffffffffffffffffffffffffffffffffff1673ffffffffffffffffffffffffffffffffffffffff166108fc60086000848152602001908152602001600020600401549081150290604051600060405180830381858888f19350505050158015610cf2573d6000803e3d6000fd5b50600360009054906101000a900473ffffffffffffffffffffffffffffffffffffffff1673ffffffffffffffffffffffffffffffffffffffff166108fc60086000848152602001908152602001600020600501549081150290604051600060405180830381858888f19350505050158015610d71573d6000803e3d6000fd5b50600760009054906101000a900473ffffffffffffffffffffffffffffffffffffffff1673ffffffffffffffffffffffffffffffffffffffff166342842e0e306008600085815260200190815260200160002060020160009054906101000a900473ffffffffffffffffffffffffffffffffffffffff1660086000868152602001908152602001600020600001546040518463ffffffff167c0100000000000000000000000000000000000000000000000000000000028152600401808473ffffffffffffffffffffffffffffffffffffffff1673ffffffffffffffffffffffffffffffffffffffff1681526020018373ffffffffffffffffffffffffffffffffffffffff1673ffffffffffffffffffffffffffffffffffffffff1681526020018281526020019350505050600060405180830381600087803b158015610eb757600080fd5b505af1158015610ecb573d6000803e3d6000fd5b5050505060016008600083815260200190815260200160002060060160006101000a81548160ff02191690836003811115610f0257fe5b0217905550807f511d2f2d07450064e52ac16a0af0253b52e2ba49981e7d55fa3d939c4627979660405160405180910390a26001808190555050565b60055481565b8160065481101515610fbe576040517f08c379a000000000000000000000000000000000000000000000000000000000815260040180806020018281038252600c8152602001807f696e76616c6964496e646578000000000000000000000000000000000000000081525060200191505060405180910390fd5b813373ffffffffffffffffffffffffffffffffffffffff16311015151561104d576040517f08c379a000000000000000000000000000000000000000000000000000000000815260040180806020018281038252601c8152602001807f6e6f74456e6f75676846756e6473546f50726f7665596f75724269640000000081525060200191505060405180910390fd5b8160086000858152602001908152602001600020600401541015156110da576040517f08c379a00000000000000000000000000000000000000000000000000000000081526004018080602001828103825260158152602001807f63616e6e6f744269644f6e4c6f7765725072696365000000000000000000000081525060200191505060405180910390fd5b60086000848152602001908152602001600020600301544211151515611168576040517f08c379a00000000000000000000000000000000000000000000000000000000081526004018080602001828103825260108152602001807f61756374696f6e497353746f707065640000000000000000000000000000000081525060200191505060405180910390fd5b6000600381111561117557fe5b6008600085815260200190815260200160002060060160009054906101000a900460ff1660038111156111a457fe5b141515611219576040517f08c379a00000000000000000000000000000000000000000000000000000000081526004018080602001828103825260148152602001807f61756374696f6e4d757374426550656e64696e6700000000000000000000000081525060200191505060405180910390fd5b816008600085815260200190815260200160002060040181905550336008600085815260200190815260200160002060020160006101000a81548173ffffffffffffffffffffffffffffffffffffffff021916908373ffffffffffffffffffffffffffffffffffffffff1602179055506112b26127106112a46002548561241490919063ffffffff16565b6124e190919063ffffffff16565b6008600085815260200190815260200160002060050181905550827f06e5b85610d9059ccc931fdbc80165c8b5544193aa18bf6fa744dabc3fd0872060405160405180910390a2505050565b3373ffffffffffffffffffffffffffffffffffffffff1661131d61165f565b73ffffffffffffffffffffffffffffffffffffffff161415156113a8576040517f08c379a00000000000000000000000000000000000000000000000000000000081526004018080602001828103825260208152602001807f4f776e61626c653a2063616c6c6572206973206e6f7420746865206f776e657281525060200191505060405180910390fd5b8060028190555050565b3373ffffffffffffffffffffffffffffffffffffffff166113d161165f565b73ffffffffffffffffffffffffffffffffffffffff1614151561145c576040517f08c379a00000000000000000000000000000000000000000000000000000000081526004018080602001828103825260208152602001807f4f776e61626c653a2063616c6c6572206973206e6f7420746865206f776e657281525060200191505060405180910390fd5b6114666000612574565b565b600081600654811015156114e4576040517f08c379a000000000000000000000000000000000000000000000000000000000815260040180806020018281038252600c8152602001807f696e76616c6964496e646578000000000000000000000000000000000000000081525060200191505060405180910390fd5b6008600084815260200190815260200160002060030154915050919050565b6000816006548110151561157f576040517f08c379a000000000000000000000000000000000000000000000000000000000815260040180806020018281038252600c8152602001807f696e76616c6964496e646578000000000000000000000000000000000000000081525060200191505060405180910390fd5b6008600084815260200190815260200160002060040154915050919050565b6000816006548110151561161a576040517f08c379a000000000000000000000000000000000000000000000000000000000815260040180806020018281038252600c8152602001807f696e76616c6964496e646578000000000000000000000000000000000000000081525060200191505060405180910390fd5b6008600084815260200190815260200160002060000154915050919050565b600760009054906101000a900473ffffffffffffffffffffffffffffffffffffffff1681565b60008060009054906101000a900473ffffffffffffffffffffffffffffffffffffffff16905090565b60045481565b8060065481101515611708576040517f08c379a000000000000000000000000000000000000000000000000000000000815260040180806020018281038252600c8152602001807f696e76616c6964496e646578000000000000000000000000000000000000000081525060200191505060405180910390fd5b813373ffffffffffffffffffffffffffffffffffffffff166008600083815260200190815260200160002060010160009054906101000a900473ffffffffffffffffffffffffffffffffffffffff1673ffffffffffffffffffffffffffffffffffffffff161415156117e2576040517f08c379a000000000000000000000000000000000000000000000000000000000815260040180806020018281038252600a8152602001807f6f6e6c7953656c6c65720000000000000000000000000000000000000000000081525060200191505060405180910390fd5b600060038111156117ef57fe5b6008600085815260200190815260200160002060060160009054906101000a900460ff16600381111561181e57fe5b1415156118b9576040517f08c379a00000000000000000000000000000000000000000000000000000000081526004018080602001828103825260288152602001807f61756374696f6e497345697468657246696c6c65644f7252656a65637465644f81526020017f724578706972656400000000000000000000000000000000000000000000000081525060400191505060405180910390fd5b600760009054906101000a900473ffffffffffffffffffffffffffffffffffffffff1673ffffffffffffffffffffffffffffffffffffffff166342842e0e303360086000888152602001908152602001600020600001546040518463ffffffff167c0100000000000000000000000000000000000000000000000000000000028152600401808473ffffffffffffffffffffffffffffffffffffffff1673ffffffffffffffffffffffffffffffffffffffff1681526020018373ffffffffffffffffffffffffffffffffffffffff1673ffffffffffffffffffffffffffffffffffffffff1681526020018281526020019350505050600060405180830381600087803b1580156119c857600080fd5b505af11580156119dc573d6000803e3d6000fd5b50505050600860008481526020019081526020016000206003015442111515611a3c5760026008600085815260200190815260200160002060060160006101000a81548160ff02191690836003811115611a3257fe5b0217905550611a75565b60036008600085815260200190815260200160002060060160006101000a81548160ff02191690836003811115611a6f57fe5b02179055505b827f0364fd3c9016133ac6880abd9fec3c15b0349b606e7385d1fe30f9ccb024970a60405160405180910390a2505050565b60008160065481101515611b23576040517f08c379a000000000000000000000000000000000000000000000000000000000815260040180806020018281038252600c8152602001807f696e76616c6964496e646578000000000000000000000000000000000000000081525060200191505060405180910390fd5b6008600084815260200190815260200160002060060160009054906101000a900460ff166003811115611b5257fe5b915050919050565b60025481565b60008160065481101515611bdc576040517f08c379a000000000000000000000000000000000000000000000000000000000815260040180806020018281038252600c8152602001807f696e76616c6964496e646578000000000000000000000000000000000000000081525060200191505060405180910390fd5b6008600084815260200190815260200160002060010160009054906101000a900473ffffffffffffffffffffffffffffffffffffffff16915050919050565b600360009054906101000a900473ffffffffffffffffffffffffffffffffffffffff1681565b61271081565b816004548110158015611c5c57506005548111155b1515611cd0576040517f08c379a00000000000000000000000000000000000000000000000000000000081526004018080602001828103825260198152602001807f696e76616c696445787069726174696f6e4475726174696f6e0000000000000081525060200191505060405180910390fd5b600760009054906101000a900473ffffffffffffffffffffffffffffffffffffffff1673ffffffffffffffffffffffffffffffffffffffff166342842e0e3330876040518463ffffffff167c0100000000000000000000000000000000000000000000000000000000028152600401808473ffffffffffffffffffffffffffffffffffffffff1673ffffffffffffffffffffffffffffffffffffffff1681526020018373ffffffffffffffffffffffffffffffffffffffff1673ffffffffffffffffffffffffffffffffffffffff1681526020018281526020019350505050600060405180830381600087803b158015611dc957600080fd5b505af1158015611ddd573d6000803e3d6000fd5b5050505060e0604051908101604052808581526020013373ffffffffffffffffffffffffffffffffffffffff168152602001600073ffffffffffffffffffffffffffffffffffffffff168152602001611e3f854261238a90919063ffffffff16565b81526020018381526020016000815260200160006003811115611e5e57fe5b8152506008600060065481526020019081526020016000206000820151816000015560208201518160010160006101000a81548173ffffffffffffffffffffffffffffffffffffffff021916908373ffffffffffffffffffffffffffffffffffffffff16021790555060408201518160020160006101000a81548173ffffffffffffffffffffffffffffffffffffffff021916908373ffffffffffffffffffffffffffffffffffffffff160217905550606082015181600301556080820151816004015560a0820151816005015560c08201518160060160006101000a81548160ff02191690836003811115611f5057fe5b02179055509050506006547f7e0e356457a92dacd3760ddf327a24dd226c6ca01b2cc41a7fd6f28469c7ab9b60405160405180910390a2611f9d600160065461238a90919063ffffffff16565b60068190555050505050565b3373ffffffffffffffffffffffffffffffffffffffff16611fc861165f565b73ffffffffffffffffffffffffffffffffffffffff16141515612053576040517f08c379a00000000000000000000000000000000000000000000000000000000081526004018080602001828103825260208152602001807f4f776e61626c653a2063616c6c6572206973206e6f7420746865206f776e657281525060200191505060405180910390fd5b8060058190555050565b3373ffffffffffffffffffffffffffffffffffffffff1661207c61165f565b73ffffffffffffffffffffffffffffffffffffffff16141515612107576040517f08c379a00000000000000000000000000000000000000000000000000000000081526004018080602001828103825260208152602001807f4f776e61626c653a2063616c6c6572206973206e6f7420746865206f776e657281525060200191505060405180910390fd5b8060048190555050565b3373ffffffffffffffffffffffffffffffffffffffff1661213061165f565b73ffffffffffffffffffffffffffffffffffffffff161415156121bb576040517f08c379a00000000000000000000000000000000000000000000000000000000081526004018080602001828103825260208152602001807f4f776e61626c653a2063616c6c6572206973206e6f7420746865206f776e657281525060200191505060405180910390fd5b80600360006101000a81548173ffffffffffffffffffffffffffffffffffffffff021916908373ffffffffffffffffffffffffffffffffffffffff16021790555050565b6000600654905090565b3373ffffffffffffffffffffffffffffffffffffffff1661222861165f565b73ffffffffffffffffffffffffffffffffffffffff161415156122b3576040517f08c379a00000000000000000000000000000000000000000000000000000000081526004018080602001828103825260208152602001807f4f776e61626c653a2063616c6c6572206973206e6f7420746865206f776e657281525060200191505060405180910390fd5b600073ffffffffffffffffffffffffffffffffffffffff168173ffffffffffffffffffffffffffffffffffffffff161415151561237e576040517f08c379a00000000000000000000000000000000000000000000000000000000081526004018080602001828103825260268152602001807f4f776e61626c653a206e6577206f776e657220697320746865207a65726f206181526020017f646472657373000000000000000000000000000000000000000000000000000081525060400191505060405180910390fd5b61238781612574565b50565b600080828401905083811015151561240a576040517f08c379a000000000000000000000000000000000000000000000000000000000815260040180806020018281038252601b8152602001807f536166654d6174683a206164646974696f6e206f766572666c6f77000000000081525060200191505060405180910390fd5b8091505092915050565b600080600084141561242957600091506124da565b828402905082848281151561243a57fe5b041415156124d6576040517f08c379a00000000000000000000000000000000000000000000000000000000081526004018080602001828103825260218152602001807f536166654d6174683a206d756c7469706c69636174696f6e206f766572666c6f81526020017f770000000000000000000000000000000000000000000000000000000000000081525060400191505060405180910390fd5b8091505b5092915050565b60008060008311151561255c576040517f08c379a000000000000000000000000000000000000000000000000000000000815260040180806020018281038252601a8152602001807f536166654d6174683a206469766973696f6e206279207a65726f00000000000081525060200191505060405180910390fd5b828481151561256757fe5b0490508091505092915050565b60008060009054906101000a900473ffffffffffffffffffffffffffffffffffffffff169050816000806101000a81548173ffffffffffffffffffffffffffffffffffffffff021916908373ffffffffffffffffffffffffffffffffffffffff1602179055508173ffffffffffffffffffffffffffffffffffffffff168173ffffffffffffffffffffffffffffffffffffffff167f8be0079c531659141344cd1fd0a4f28419497f9722a3daafe3b4186f6b6457e060405160405180910390a350505600a165627a7a72305820e6e4790810936cf1d05dd77d09e5b721f4be6826ebf44c96718a471b00c408a90029",
  "devdoc": {
    "author": "Integral Team",
    "methods": {
      "bid(uint256,uint256)": {
        "params": {
          "_at": "The index of the auction",
          "_newPrice": "The price which the buyer want to spend at the auctioning item. Must be greater than current price in the auction."
        }
      },
      "cancelAuction(uint256)": {
        "params": {
          "_at": "The index of the auction"
        }
      },
      "createAuction(uint256,uint256,uint256)": {
        "params": {
          "_expirationDuration": "Duration of the auction in valid bounds (between min and max value of the duration)",
          "_nftToSell": "The selling token ID",
          "_startPrice": "Starting price of the selling token in ETH (wei)"
        }
      },
      "getAuctionsAmount()": {
        "return": "Amount of the auctions"
      },
      "getCurrentFeesToPayOfAuction(uint256)": {
        "params": {
          "_at": "The index of the auction"
        },
        "return": "Current amount of fees to pay"
      },
      "getCurrentPriceOfAuction(uint256)": {
        "params": {
          "_at": "The index of the auction"
        },
        "return": "Current price of the auctioning token"
      },
      "getLastBuyerOfAuction(uint256)": {
        "params": {
          "_at": "The index of the auction"
        },
        "return": "Seller address"
      },
      "getSellerOfAuction(uint256)": {
        "params": {
          "_at": "The index of the auction"
        },
        "return": "Seller address"
      },
      "getStatusOfAuction(uint256)": {
        "params": {
          "_at": "The index of the auction"
        },
        "return": "Status enumeration member as uint256"
      },
      "getStopTimeOfAuction(uint256)": {
        "params": {
          "_at": "The index of the auction"
        },
        "return": "Stop time in UNIX timestamp"
      },
      "getTokenIdOfAuction(uint256)": {
        "params": {
          "_at": "The index of the auction"
        },
        "return": "The ID of the auctions selling token"
      },
      "owner()": {
        "details": "Returns the address of the current owner."
      },
      "renounceOwnership()": {
        "details": "Leaves the contract without owner. It will not be possible to call `onlyOwner` functions anymore. Can only be called by the current owner.     * NOTE: Renouncing ownership will leave the contract without an owner, thereby removing any functionality that is only available to the owner."
      },
      "setFee(uint256)": {
        "params": {
          "_fee": "The new amount of fee in BPS"
        }
      },
      "setFeeReceiver(address)": {
        "params": {
          "_feeReceiver": "The new fee receiver address"
        }
      },
      "setMaxExpirationDuration(uint256)": {
        "params": {
          "_maxExpirationDuration": "The new maximum expiration duration in seconds"
        }
      },
      "setMinExpirationDuration(uint256)": {
        "params": {
          "_minExpirationDuration": "The new minimum expiration duration in seconds"
        }
      },
      "setWorkingNFT(address)": {
        "params": {
          "_newNFTOnSale": "The new NFT token address"
        }
      },
      "take(uint256)": {
        "params": {
          "_at": "The index of the auction"
        }
      },
      "transferOwnership(address)": {
        "details": "Transfers ownership of the contract to a new account (`newOwner`). Can only be called by the current owner."
      }
    },
    "title": "A contract for auctioning the NFTs."
  },
  "userdoc": {
    "methods": {
      "bid(uint256,uint256)": {
        "notice": "Allows anyone to bid in the ceriatin auction if they have needed balance."
      },
      "cancelAuction(uint256)": {
        "notice": "This function can be called only by the seller of the auctioning item and provides the functional to reject or expire the auction if certain amount of time passed. Emits the AuctionRejected event"
      },
      "createAuction(uint256,uint256,uint256)": {
        "notice": "The function which could create a auction"
      },
      "getAuctionsAmount()": {
        "notice": "The standard getter to return an amount of the auctions"
      },
      "getCurrentFeesToPayOfAuction(uint256)": {
        "notice": "The standard getter to return a current amount of fees to pay of the given auction"
      },
      "getCurrentPriceOfAuction(uint256)": {
        "notice": "The standard getter to return a current price of the given auction"
      },
      "getLastBuyerOfAuction(uint256)": {
        "notice": "The standard getter to return a seller of the given auction"
      },
      "getSellerOfAuction(uint256)": {
        "notice": "The standard getter to return a seller of the given auction"
      },
      "getStatusOfAuction(uint256)": {
        "notice": "The standard getter to return a status of the given auction"
      },
      "getStopTimeOfAuction(uint256)": {
        "notice": "The standard getter to return a stop time of the given auction"
      },
      "getTokenIdOfAuction(uint256)": {
        "notice": "The standard getter to return a token ID of the given auctions selling token"
      },
      "setFee(uint256)": {
        "notice": "A standard setter for the fee BPS amount which available only for user"
      },
      "setFeeReceiver(address)": {
        "notice": "A standard setter for the fee receiver address which available only for user"
      },
      "setMaxExpirationDuration(uint256)": {
        "notice": "A standard setter for the maximum expiration duration which available only for user"
      },
      "setMinExpirationDuration(uint256)": {
        "notice": "A standard setter for the minimum expiration duration which available only for user"
      },
      "setWorkingNFT(address)": {
        "notice": "A standard setter for the working NFT which available only for user"
      },
      "take(uint256)": {
        "notice": "Allows the address who won the auction pay and take bought NFT item."
      }
    }
  }
}